:100000000C9446000C9465000C9465000C946500FB
:100010000C9465000C9465000C9465000C946500CC
:100020000C9465000C9465000C9465000C946500BC
:100030000C9465000C94D7000C9465000C9465003A
:100040000C9465000C9465000C9465000C9465009C
:100050000C9465000C9465000C9465000C9465008C
:100060000C9465000C9465000C9465000C9465007C
:100070000C9465000C9465000C9465000C9465006C
:100080000C9465000C9465000C94650011241FBE4F
:10009000CFEFD0E4DEBFCDBF11E0A0E0B1E0E8ECEF
:1000A000FCE000E00BBF02C007900D92AE31B1073B
:1000B000D9F721E0AEE1B1E001C01D92A936B20747
:1000C000E1F70E9432050C9462060C9400000F9335
:1000D0001F93CF93DF9300D000D000D0CDB7DEB711
:1000E00029833A834B835C8309811A812B812E8378
:1000F0003C813D8329813A814B815C810E9440068D
:1001000069837A838B839C83602F712F8E819D817D
:1001100029813A814B815C81232B242B252B21F7CC
:1001200026960FB6F894DEBF0FBECDBFDF91CF91FC
:100130001F910F91089560931201709313018093A2
:100140001401909315016093290170932A01809303
:100150002B0190932C0108958BE0809381008DE713
:1001600090E0909389008093880082E080936F00F4
:1001700010928500109284008091120190911301D9
:10018000A0911401B09115018093290190932A0147
:10019000A0932B01B0932C018FB780688FBF089577
:1001A00010928100089581E080932D0108951F929F
:1001B0000F920FB60F9211240BB60F922F933F930D
:1001C0004F935F936F937F938F939F93AF93BF935F
:1001D000EF93FF938091290190912A01A0912B0127
:1001E000B0912C010197A109B10980932901909345
:1001F0002A01A0932B01B0932C01892B8A2B8B2BE6
:1002000099F0FF91EF91BF91AF919F918F917F9165
:100210006F915F914F913F912F910F900BBE0F9077
:100220000FBE0F901F9018950E94D300809112016D
:1002300090911301A0911401B091150180932901AF
:1002400090932A01A0932B01B0932C01DACF84B1B3
:10025000806B84B98CB581658CBD08958EBD0DB45D
:1002600007FEFDCF8EB50895CF93C62F95B19F7E23
:1002700095B990E0880F991F8E770E942E018C2FE0
:100280000E942E0185B1806185B9CF91089595B105
:100290009F7E95B990E0880F991F8E7780680E94A5
:1002A0002E0180E00E942E0195B1906195B90895CC
:1002B0006FE081E00E94340108950E9458016DE8CA
:1002C0008AE20E9434016EE38BE20E9434016EE107
:1002D0008CE20E94340160E08DE20E94340160E40F
:1002E00085E10E9434016DE381E10E94340184E1E3
:1002F0000E944701982F937009F00895682F63605A
:1003000084E10E943401F9CF3F924F925F926F9245
:100310007F928F929F92AF92BF92CF92DF92EF9295
:10032000FF920F931F93CF93DF93382EA62EB72EF5
:10033000C42FE22EF32EC02ED12E4CE08417E9F00C
:100340005EE085131DC0D0E112E184E00E94470108
:10035000682F6F7784E00E9434018AE00E94470191
:10036000682F60688AE00E94340160E081E00E94AA
:100370003401412C512C320112C0D0E317E7E5CFF4
:10038000D0E010E0E2CFF501E40DF51D608189E0D9
:100390000E9434018FEF481A580A680A780A8C2F95
:1003A00090E0B0E0A0E0481659066A067B0658F3D4
:1003B000632D81E00E943401ECE03E16B9F10F2E6E
:1003C000F0ED8F2EF7E09F2EA12CB12CF02D84E0C4
:1003D0000E944701C82FF1E08F1A9108A108B108C7
:1003E00029F080FD03C08D2F8C2389F38DE00E94BE
:1003F0004701682F6F778DE00E94340189288A2891
:100400008B28E9F4C3E08C2FDF91CF911F910F91DE
:10041000FF90EF90DF90CF90BF90AF909F908F9024
:100420007F906F905F904F903F9008958DE00E9475
:100430004701682F60688DE00E943401C0CF86E0DC
:100440000E9447018B7109F05CC0C123C0FD29C027
:10045000C1E04CE03412D7CF8AE00E944701D82F88
:100460008CE00E9447018770F1F0ED2FE150FF0B07
:100470009F01220F331F220F331F220F331F820FC2
:10048000932F911D092E000CAA0BBB0BF601808344
:100490009183A283B383DD23C1F0D131B8F0D0E1E1
:1004A00015C0C2E0D6CF8D2F90E0880F991F880F1E
:1004B000991F880F991F092E000CAA0BBB0BF60180
:1004C00080839183A283B383E6CFD1E0812C912CEA
:1004D00054010DC08701080D191D89E00E944701D4
:1004E000F8018083FFEF8F1A9F0AAF0ABF0A4D2FD2
:1004F00050E070E060E084169506A606B70650F35B
:1005000082CFC3E080CFEF92FF920F931F93CF93E0
:10051000DF9300D000D0CDB7DEB7182FE62EF72E30
:1005200067E08DE00E943401F70110838E010F5FB8
:100530001F4F970141E0B7018CE00E948401813098
:1005400061F083E00F900F900F900F90DF91CF91AB
:100550001F910F91FF90EF90089549815A816B810F
:100560007C81403151056105710561F383E0EACF7B
:10057000EF92FF920F931F93CF93DF9300D000D0A1
:10058000CDB7DEB7E82EF92E60E08DE00E94340191
:1005900083E9F701808380E281838E010F5F1F4F23
:1005A000970142E0B7018CE00E9484018130D9F0CC
:1005B0000F900F900F900F90DF91CF911F910F919F
:1005C000FF90EF900895F701E90FF11D3081232787
:1005D0009F5F9430C0F3E90EF11CF70190819217F0
:1005E00039F383E0E5CF20E090E0F3CFCF93DF93C2
:1005F000C82FD92F6FE571E082E50E9483028093B6
:100600005E01C130D10561F1C230D105C1F1209741
:1006100011F169F1C130D10591F581E088B98FE51B
:1006200091E00E94B80280935E01813041F5109202
:100630005E0180915E01853038F5282F30E0F901A8
:10064000E15AFE4F90812C5D3E4FF90190838F5F00
:1006500080935E01EECF813051F4C1E0D0E0DDCF78
:1006600080911E01813009F46DC0D0E0C0E018B85F
:1006700081E08093020180930101809300018C2F1F
:100680009D2FDF91CF91089510925E0105C01092C9
:1006900002018F5F80935E0180915E01853068F476
:1006A000282F30E0F901EC5DFE4F4081235F3E4F83
:1006B000F90190814913EBCFECCF10925E0105C098
:1006C000109201018F5F80935E0180915E01853001
:1006D00068F4282F30E0F901EC5DFE4F4081285F7F
:1006E0003E4FF90190814913EBCFECCF10925E01A0
:1006F00005C0109200018F5F80935E0180915E01C2
:10070000853068F4282F30E0F901EC5DFE4F408120
:100710002D5F3E4FF90190814913EBCFECCF8091D3
:100720000201813049F080910101813029F08091EE
:100730000001813009F0A3CF81E080931E0182E0A7
:1007400088B99DCFC2E0D0E09ACF813081F0E1EC52
:10075000F0E0808188618083E2ECF0E08081866057
:10076000808383E38093C4001092C5000895E9EC70
:10077000F0E0808188618083EAECF0E0808186602F
:10078000808383E38093CC001092CD000895813064
:1007900021F08091C000807208958091C80080721D
:1007A0000895813021F08091C00080740895809177
:1007B000C80080740895813021F08091C000807855
:1007C00008958091C80080780895813041F080912B
:1007D000C00088231CF48091C600F9CF0895809151
:1007E000C80088231CF48091CE00F9CF08956130B1
:1007F00039F09091C00095FFFCCF8093C60008951A
:100800009091C80095FFFCCF8093CE000895CF93C0
:10081000DF93C82FD92F8091230190912201892B3A
:1008200090912101892B90912001892B80931F01A8
:100830008295807F82B9209739F0C130D10581F04F
:10084000A1F08C2F9D2F18C080E00E94C703882341
:10085000C9F080911E01813091F08C2F9D2F0CC02A
:1008600080E00E94D103811110C060E080911F01DF
:100870000E94F7038C2F9D2FDF91CF910895C1E047
:10088000D0E0F3CF8C2F9D2FF7CF80E090E0F4CF16
:10089000813039F08091C0008823E4F78091C60050
:1008A00008958091C8008823E4F78091CE000895D0
:1008B00080E480937C0087E880937A0008958770B5
:1008C000ECE7F0E09081987F892B8083EAE7F0E005
:1008D00080818064808380917A0086FDFCCF809146
:1008E0007800909179000895CF93DF93C82FD92F86
:1008F00081E00E945F04282F392FC130D10549F1D2
:10090000C230D10581F1209761F0C130D105D1F11C
:10091000C230D10509F441C0209791F08C2F9D2F52
:1009200015C02C3B82E0380720F080911E018130F9
:1009300021F12D32314020F480911E01813041F1AE
:1009400010922301109222018C2F9D2FDF91CF91C5
:1009500008952C3B82E03807A8F42D323140D8F0BE
:10096000D0E0C0E0EDCF2C3B82E0380748F42D32D8
:10097000314098F0D0E0C0E0E3CFC1E0D0E002C069
:10098000C1E0D0E082E0809323018C2F9D2FDECF49
:10099000C2E0D0E002C0C2E0D0E081E0809322015A
:1009A0008C2F9D2FD3CFCF93DF93C82FD92F80E0EB
:1009B0000E945F04282F392FC130D10549F1C23080
:1009C000D10581F1209761F0C130D105D1F1C2305C
:1009D000D10509F441C0209791F08C2F9D2F15C0AF
:1009E0002C3B82E0380720F080911E01813021F1FC
:1009F0002D32314020F480911E01813041F110925E
:100A00002101109220018C2F9D2FDF91CF9108950D
:100A10002C3B82E03807A8F42D323140D8F0D0E0EA
:100A2000C0E0EDCF2C3B82E0380748F42D32314056
:100A300098F0D0E0C0E0E3CFC1E0D0E002C0C1E078
:100A4000D0E084E0809321018C2F9D2FDECFC2E087
:100A5000D0E002C0C2E0D0E088E0809320018C2F7B
:100A60009D2FD3CFCDB7DEB728970FB6F894DEBF52
:100A70000FBECDBF80EF81B98FE082B98FEF87B90C
:100A800018B80E9458040E94270180E00E94A50324
:100A90000E945D0187E30E94470180935E018239D5
:100AA00021F08059823008F49EC082E00E94470104
:100AB00080935E01682F606282E00E94340183E0CF
:100AC0000E94470180935E01682F606883E00E9466
:100AD000340121E030E040E050E061E070E080E08F
:100AE00090E00E94670025E030E040E050E00E9486
:100AF000670024EF31E040E050E00E946700E62EFE
:100B0000F72E082F192F61E070E080E090E02E2D85
:100B10003F2D402F512F0E94400649015A0165E0A8
:100B200070E080E090E02E2D3F2D402F512F0E944D
:100B3000400629013A0164EF71E080E090E02E2D3B
:100B40003F2D402F512F0E94400688E0E6E1F1E062
:100B5000DE01119601900D928A95E1F7E2E5F1E050
:100B600010822183328343835483258336834783D2
:100B7000508786EF92E092878187E6E4F1E0108269
:100B800081829282A382B48285829682A782B08675
:100B900084E794E092878187EAE3F1E01082818222
:100BA0009282A382B48285829682A782B08683EDE8
:100BB00094E092878187EEE2F1E0108241825282D6
:100BC00063827482458256826782708687E094E0F1
:100BD000928781876E2D7F2D802F912F0E949B0001
:100BE0000E94AC004AC082E088B95FCFF8018581DD
:100BF0009681A781B0850196A11DB11D858396833D
:100C0000A783B087FFEFEF1AFF0A84E0E816F1042C
:100C100070F5F701EE0FFF1F81E090E08C0F9D1F34
:100C2000E80FF91F00811181D80115964D915D9152
:100C30006D917C91189711968D919D910D90BC911D
:100C4000A02D481759076A077B0781F6D801199626
:100C5000ED91FC911A978C91082E000C990B099537
:100C6000F80180831582168217821086BFCF80918B
:100C70002D018823E1F310922D01F12CE12CC5CF39
:100C8000A1E21A2EAA1BBB1BFD010DC0AA1FBB1F90
:100C9000EE1FFF1FA217B307E407F50720F0A21B02
:100CA000B30BE40BF50B661F771F881F991F1A946F
:100CB00069F760957095809590959B01AC01BD0199
:080CC000CF010895F894FFCF65
:100CC80001010129A0FE4E3999C7C2861A196F0C75
:0E0CD80095EF01000000520146013A012E0185
:00000001FF
