:100000000C9446000C9465000C9465000C946500FB
:100010000C9465000C9465000C9465000C946500CC
:100020000C9465000C9465000C9465000C946500BC
:100030000C9465000C9400010C9465000C94650010
:100040000C9465000C9465000C9465000C9465009C
:100050000C9465000C9465000C9465000C9465008C
:100060000C9465000C9465000C9465000C9465007C
:100070000C9465000C9465000C9465000C9465006C
:100080000C9465000C9465000C94650011241FBE4F
:10009000CFEFD0E4DEBFCDBF11E0A0E0B1E0E2EBF6
:1000A000F4E000E00BBF02C007900D92A430B1074E
:1000B000D9F721E0A4E0B1E001C01D92A332B2075C
:1000C000E1F70E9497010C9457020C940000282F2E
:1000D000392F21303105D9F02230310579F0232B29
:1000E00021F015B890E080E00895809105018130FD
:1000F00091F0809104018130A1F704C08091040146
:10010000813079F785E085B982E090E008958091AB
:100110000501813031F78AE085B981E090E00895EA
:100120000F931F93CF93DF9300D000D000D0CDB7B3
:10013000DEB729833A834B835C8309811A812B8143
:100140002E833C813D8329813A814B815C810E94D1
:10015000350269837A838B839C83602F712F8E8114
:100160009D8129813A814B815C81232B242B252B76
:1001700021F726960FB6F894DEBF0FBECDBFDF91F4
:10018000CF911F910F910895609300017093010129
:10019000809302019093030160930601709307011D
:1001A000809308019093090108958BE0809381006A
:1001B0008DE790E0909389008093880082E080939F
:1001C0006F00109285001092840080910001909140
:1001D0000101A0910201B091030180930601909367
:1001E0000701A0930801B09309018FB780688FBF02
:1001F000089510928100089581E080930A01089586
:100200001F920F920FB60F9211240BB60F922F93DD
:100210003F934F935F936F937F938F939F93AF938E
:10022000BF93EF93FF938091060190910701A091F6
:100230000801B09109010197A109B1098093060154
:1002400090930701A0930801B0930901892B8A2B91
:100250008B2B99F0FF91EF91BF91AF919F918F916F
:100260007F916F915F914F913F912F910F900BBEB6
:100270000F900FBE0F901F9018950E94FC00809168
:10028000000190910101A0910201B09103018093BE
:10029000060190930701A0930801B0930901DACFFA
:1002A000EAE7F0E08081806E808308958091780095
:1002B000909179000895CF93DF93C82FD92F0E9492
:1002C0005601282F392FC130D105D9F0C230D105C0
:1002D00001F1CD2B49F0109205011092040190E03C
:1002E00080E0DF91CF9108952C3B82E03807C8F47D
:1002F0002D32314080F781E08093040182E090E06C
:10030000F0CF2C3B82E0380760F42D32314018F7F3
:10031000F2CF2C3B82E0380720F42D323140D8F662
:10032000EACF81E08093050181E090E0DACF00D050
:1003300000D0CDB7DEB711B81FEF12B914B915B898
:100340000E94500121E030E040E050E061E070E0C8
:1003500080E090E00E949000E62EF72E082FD92E24
:1003600061E070E080E090E02E2D3F2D402F5D2D6C
:100370000E943502A7E1B1E0BA83A983EBE0F1E086
:10038000FC83EB831C9311962D933D934D935C93CB
:10039000149715962D933D934D935C9318978BE589
:1003A00091E01A969C938E93199710832183328340
:1003B00043835483258336834783508787E690E0C1
:1003C000928781876E2D7F2D802F9D2D0E94C400E6
:1003D0000E94D50047C0F80185819681A781B0852C
:1003E0000196A11DB11D85839683A783B087FFEF7A
:1003F000EF1AFF0A82E0E816F10470F5F701EE0F3C
:10040000FF1F81E090E08C0F9D1FE80FF91F008116
:100410001181D80115964D915D916D917C91189740
:1004200011968D919D910D90BC91A02D4817590763
:100430006A077B0781F6D8011996ED91FC911A970E
:100440008C91082E000C990B0995F8018083158278
:10045000168217821086BFCF80910A018823E1F3AC
:1004600010920A01F12CE12CC5CFA1E21A2EAA1B91
:10047000BB1BFD010DC0AA1FBB1FEE1FFF1FA21754
:10048000B307E407F50720F0A21BB30BE40BF50B51
:10049000661F771F881F991F1A9469F760957095DA
:1004A000809590959B01AC01BD01CF010895F89412
:0204B000FFCF7C
:0404B2000100000045
:00000001FF
