:100000000C9446000C9465000C9465000C946500FB
:100010000C9465000C9465000C9465000C946500CC
:100020000C9465000C9465000C9465000C946500BC
:100030000C9465000C94E0010C9465000C94650030
:100040000C9465000C9465000C9465000C9465009C
:100050000C9465000C9465000C9465000C9465008C
:100060000C9465000C9465000C9465000C9465007C
:100070000C9465000C9465000C9465000C9465006C
:100080000C9465000C9465000C94650011241FBE4F
:10009000CFEFD0E4DEBFCDBF11E0A0E0B1E0EEE6EF
:1000A000F7E000E00BBF02C007900D92AC30B10743
:1000B000D9F721E0ACE0B1E001C01D92A634B2074F
:1000C000E1F70E94C6020C94B5030C940000282F9F
:1000D000392F21303105D9F02230310579F0232B29
:1000E00021F015B890E080E00895809110018130F2
:1000F00091F080910F018130A1F704C080910F0130
:10010000813079F785E085B982E090E008958091AB
:100110001001813031F78AE085B981E090E00895DF
:10012000282F392F2130310591F02230310509F186
:10013000232B21F01BB890E080E0089580910E0100
:10014000813049F080910D018130A1F716C0809176
:100150000E01813079F780910C0181112CC080E96A
:100160008BB980910C018F5F80930C0181E090E04E
:10017000089580910D018130E9F680910C0188236A
:1001800009F468C0813009F46FC0823009F476C088
:10019000833009F47DC0843009F484C0853009F4CB
:1001A0008BC0863009F492C080E98BB910920C01A3
:1001B00082E090E00895813089F08230C9F0833088
:1001C00009F1843049F1853089F18630C9F180E147
:1001D0008BB910920C0181E090E0089580E88BB912
:1001E00080910C018F5F80930C0181E090E0089575
:1001F00080EC8BB980910C018F5F80930C0181E0C2
:1002000090E0089580E48BB980910C018F5F80931A
:100210000C0181E090E0089580E68BB980910C019B
:100220008F5F80930C0181E090E0089580E28BB9AC
:1002300080910C018F5F80930C0181E090E0089524
:1002400080E38BB980910C018F5F80930C0181E07A
:1002500090E0089580E18BB980910C018F5F8093CD
:100260000C0182E090E0089580E38BB980910C014D
:100270008F5F80930C0182E090E0089580E28BB95B
:1002800080910C018F5F80930C0182E090E00895D3
:1002900080E68BB980910C018F5F80930C0182E026
:1002A00090E0089580E48BB980910C018F5F80937A
:1002B0000C0182E090E0089580EC8BB980910C01F4
:1002C0008F5F80930C0182E090E0089580E88BB905
:1002D00080910C018F5F80930C0182E090E0089583
:1002E0000F931F93CF93DF9300D000D000D0CDB7F2
:1002F000DEB729833A834B835C8309811A812B8182
:100300002E833C813D8329813A814B815C810E940F
:10031000930369837A838B839C83602F712F8E81F3
:100320009D8129813A814B815C81232B242B252BB4
:1003300021F726960FB6F894DEBF0FBECDBFDF9132
:10034000CF911F910F910895609300017093010167
:100350008093020190930301609311017093120145
:10036000809313019093140108958BE08093810092
:100370008DE790E0909389008093880082E08093DD
:100380006F0010928500109284008091000190917E
:100390000101A0910201B09103018093110190939A
:1003A0001201A0931301B09314018FB780688FBF1F
:1003B000089510928100089581E0809315010895B9
:1003C0001F920F920FB60F9211240BB60F922F931C
:1003D0003F934F935F936F937F938F939F93AF93CD
:1003E000BF93EF93FF938091110190911201A0911F
:1003F0001301B09114010197A109B1098093110172
:1004000090931201A0931301B0931401892B8A2BAE
:100410008B2B99F0FF91EF91BF91AF919F918F91AD
:100420007F916F915F914F913F912F910F900BBEF4
:100430000F900FBE0F901F9018950E94DC018091C5
:10044000000190910101A0910201B09103018093FC
:10045000110190931201A0931301B0931401DACF0C
:1004600080E480937C0087E880937A000895877009
:10047000ECE7F0E09081987F892B8083EAE7F0E059
:1004800080818064808380917A0086FDFCCF80919A
:100490007800909179000895CF93DF93C82FD92FDA
:1004A00081E00E943702282F392FC130D105D9F0C1
:1004B000C230D10501F1CD2B49F0109210011092FC
:1004C0000F0190E080E0DF91CF9108952C3B82E016
:1004D0003807C8F42D32314080F781E080930F0156
:1004E00082E090E0F0CF2C3B82E0380760F42D32C0
:1004F000314018F7F2CF2C3B82E0380720F42D3240
:100500003140D8F6EACF81E08093100181E090E09D
:10051000DACFCF93DF93C82FD92F80E00E94370224
:10052000282F392FC130D105D9F0C230D10501F1C2
:10053000CD2B49F010920E0110920D0190E080E059
:10054000DF91CF9108952C3B82E03807C8F42D321B
:10055000314080F781E080930D0182E090E0F0CFA0
:100560002C3B82E0380760F42D32314018F7F2CF8F
:100570002C3B82E0380720F42D323140D8F6EACF08
:1005800081E080930E0181E090E0DACFCDB7DEB755
:1005900028970FB6F894DEBF0FBECDBF11B81FEF7E
:1005A00012B914B915B81AB91BB80E94300221E06B
:1005B00030E040E050E061E070E080E090E00E94D8
:1005C000700121E030E040E050E00E94700121E045
:1005D00030E040E050E00E947001D62EE72EF82E69
:1005E000092F61E070E080E090E02D2D3E2D4F2D31
:1005F000502F0E94930388E0E4E0F1E0DE011196C1
:1006000001900D928A95E1F7EAE3F1E010832183EE
:1006100032834383548325833683478350878CE416
:1006200092E092878187EEE2F1E0108321833283AA
:1006300043835483258336834783508787E690E03E
:1006400092878187E2E2F1E0108321833283438342
:100650005483258336834783508780E990E09287CF
:100660008187E6E1F1E01083218332834383548361
:10067000258336834783508789E892E09287818774
:100680006D2D7E2D8F2D902F0E94A4010E94B5010B
:1006900047C0F80185819681A781B0850196A11D8B
:1006A000B11D85839683A783B087FFEFEF1AFF0AFA
:1006B00084E0E816F10470F5F701EE0FFF1F81E00A
:1006C00090E08C0F9D1FE80FF91F00811181D80168
:1006D00015964D915D916D917C91189711968D9124
:1006E0009D910D90BC91A02D481759076A077B0773
:1006F00081F6D8011996ED91FC911A978C91082EEC
:10070000000C990B0995F8018083158216821782D7
:100710001086BFCF809115018823E1F31092150157
:10072000F12CE12CC5CFA1E21A2EAA1BBB1BFD01A7
:100730000DC0AA1FBB1FEE1FFF1FA217B307E407C0
:10074000F50720F0A21BB30BE40BF50B661F771F18
:10075000881F991F1A9469F76095709580959095F8
:0E0760009B01AC01BD01CF010895F894FFCFBD
:0C076E00010000003A012E0122011601DA
:00000001FF
