:100000000C9446000C9465000C9465000C946500FB
:100010000C9465000C9465000C9465000C946500CC
:100020000C9465000C9465000C9465000C946500BC
:100030000C9465000C94F1000C9465000C94650020
:100040000C9465000C9465000C9465000C9465009C
:100050000C9465000C9465000C9465000C9465008C
:100060000C9465000C9465000C9465000C9465007C
:100070000C9465000C9465000C9465000C9465006C
:100080000C9465000C9465000C94650011241FBE4F
:10009000CFEFD0E4DEBFCDBF11E0A0E0B1E0E4E5FA
:1000A000F5E000E00BBF02C007900D92A430B1074D
:1000B000D9F721E0A4E0B1E001C01D92A332B2075C
:1000C000E1F70E94DF010C94A8020C940000282F95
:1000D000392F2115310549F02130310561F081E0DA
:1000E0008093050190E080E0089582E0809305010F
:1000F00081E090E0089584E08093050182E090E043
:1001000008950F931F93CF93DF9300D000D000D0BA
:10011000CDB7DEB729833A834B835C8309811A818B
:100120002B812E833C813D8329813A814B815C81E7
:100130000E94860269837A838B839C83602F712F50
:100140008E819D8129813A814B815C81232B242BD7
:10015000252B21F726960FB6F894DEBF0FBECDBF34
:10016000DF91CF911F910F910895609300017093DB
:100170000101809302019093030160930601709343
:100180000701809308019093090108958BE0809303
:1001900081008DE790E0909389008093880082E051
:1001A00080936F001092850010928400809100016E
:1001B00090910101A0910201B09103018093060189
:1001C00090930701A0930801B09309018FB780684D
:1001D0008FBF089510928100089581E080930A01F5
:1001E00008951F920F920FB60F9211240BB60F9223
:1001F0002F933F934F935F936F937F938F939F932F
:10020000AF93BF93EF93FF93809106019091070105
:10021000A0910801B09109010197A109B10980934A
:10022000060190930701A0930801B0930901892B5F
:100230008A2B8B2B99F0FF91EF91BF91AF919F91FA
:100240008F917F916F915F914F913F912F910F907F
:100250000BBE0F900FBE0F901F9018950E94ED00DF
:100260008091000190910101A0910201B0910301E0
:100270008093060190930701A0930801B0930901B0
:10028000DACF813081F0E1ECF0E080818861808319
:10029000E2ECF0E080818660808383E38093C40099
:1002A0001092C5000895E9ECF0E0808188618083B8
:1002B000EAECF0E080818660808383E38093CC0069
:1002C0001092CD000895813021F08091C00080729D
:1002D00008958091C80080720895813021F0809146
:1002E000C000807408958091C800807408958130A2
:1002F00021F08091C000807808958091C8008078B6
:100300000895813041F08091C00088231CF48091D1
:10031000C600F9CF08958091C80088231CF480910D
:10032000CE00F9CF0895613039F09091C00095FF6B
:10033000FCCF8093C60008959091C80095FFFCCF34
:100340008093CE000895CF93DF93C82FD92F80914B
:10035000050180930401209739F0219769F080E02E
:1003600090E0DF91CF91089580E00E9463018111B8
:1003700008C08C2F9D2FF5CF80E00E946D01811168
:1003800008C060E0809104010E94930181E090E048
:10039000E8CF80E00E94810180E090E0E2CF8130F0
:1003A00039F08091C0008823E4F78091C600089559
:1003B0008091C8008823E4F78091CE00089500D092
:1003C00000D0CDB7DEB780E00E94410122E330E0EB
:1003D00040E050E068EE73E080E090E00E94810031
:1003E000E62EF72E082F192F68EE73E080E090E0DC
:1003F0002E2D3F2D402F512F0E94860249015A0178
:1004000062E370E080E090E02E2D3F2D402F512FD1
:100410000E948602A7E1B1E0BA83A983EBE0F1E094
:10042000FC83EB838FEF8C9311968D929D92AD920E
:10043000BC92149715968D929D92AD92BC9218978E
:1004400067E670E01A967C936E93199780832183F8
:10045000328343835483258336834783508783EADB
:1004600091E0928781876E2D7F2D802F912F0E94A2
:10047000B5000E94C60047C0F80185819681A7811A
:10048000B0850196A11DB11D85839683A783B08792
:10049000FFEFEF1AFF0A82E0E816F10470F5F701AA
:1004A000EE0FFF1F81E090E08C0F9D1FE80FF91FFA
:1004B00000811181D80115964D915D916D917C91CE
:1004C000189711968D919D910D90BC91A02D481774
:1004D00059076A077B0781F6D8011996ED91FC91BF
:1004E0001A978C91082E000C990B0995F8018083BE
:1004F0001582168217821086BFCF80910A01882349
:10050000E1F310920A01F12CE12CC5CFA1E21A2EE1
:10051000AA1BBB1BFD010DC0AA1FBB1FEE1FFF1FA7
:10052000A217B307E407F50720F0A21BB30BE40BF7
:10053000F50B661F771F881F991F1A9469F760953E
:100540007095809590959B01AC01BD01CF010895F8
:04055000F894FFCF4D
:0405540001000000A2
:00000001FF
