:100000000C9446000C9465000C9465000C946500FB
:100010000C9465000C9465000C9465000C946500CC
:100020000C9465000C9465000C9465000C946500BC
:100030000C9465000C94FB000C9465000C94650016
:100040000C9465000C9465000C9465000C9465009C
:100050000C9465000C9465000C9465000C9465008C
:100060000C9465000C9465000C9465000C9465007C
:100070000C9465000C9465000C9465000C9465006C
:100080000C9465000C9465000C94650011241FBE4F
:10009000CFEFD0E4DEBFCDBF11E0A0E0B1E0E8E2F9
:1000A000F4E000E00BBF02C007900D92A830B1074A
:1000B000D9F721E0A8E0B1E001C01D92AA31B20752
:1000C000E1F70E947F010C9412020C940000282F8B
:1000D000392F2230310521F42130310519F00895EE
:1000E00081E090E020910801211108C020E922B9A7
:1000F000209108012F5F209308010895213079F0A5
:100100002230A9F02330D9F0243009F1253039F11B
:10011000263069F120E122B910920801089520E803
:1001200022B9209108012F5F20930801089520EC47
:1001300022B9209108012F5F20930801089520E43F
:1001400022B9209108012F5F20930801089526E02D
:1001500022B9209108012F5F20930801089520E221
:1001600022B9209108012F5F20930801089520E310
:1001700022B9209108012F5F209308010895609310
:100180000401709305018093060190930701609329
:10019000090170930A0180930B0190930C0108955B
:1001A0008BE0809381008DE790E0909389008093AD
:1001B000880082E080936F00109285001092840086
:1001C0008091040190910501A0910601B091070171
:1001D0008093090190930A01A0930B01B0930C0145
:1001E0008FB780688FBF089510928100089581E0D5
:1001F00080930D0108951F920F920FB60F92112454
:100200000BB60F922F933F934F935F936F937F9310
:100210008F939F93AF93BF93EF93FF9380910901C7
:1002200090910A01A0910B01B0910C010197A109D5
:10023000B1098093090190930A01A0930B01B09337
:100240000C01892B8A2B8B2B99F0FF91EF91BF9199
:10025000AF919F918F917F916F915F914F913F915E
:100260002F910F900BBE0F900FBE0F901F901895FF
:100270000E94F7008091040190910501A091060170
:10028000B09107018093090190930A01A0930B019B
:10029000B0930C01DACF0F931F93CF93DF9300D06D
:1002A00000D000D0CDB7DEB729833A834B835C837F
:1002B00009811A812B812E833C813D8329813A81DA
:1002C0004B815C810E94F00169837A838B839C83DC
:1002D000602F712F8E819D8129813A814B815C81B4
:1002E000232B242B252B21F726960FB6F894DEBF5F
:1002F0000FBECDBFDF91CF911F910F91089500D018
:10030000CDB7DEB780EF81B98FE082B9EEE0F1E0E2
:10031000FA83E9838FEF808381E090E0A0E0B0E092
:1003200081839283A383B48385839683A783B087D5
:1003300087E690E09287818761E070E080E090E05E
:100340000E94BF000E94D00040C0F701EE0FFF1FC7
:1003500081E090E08C0F9D1FE80FF91F0081118153
:10036000D80115964D915D916D917C9118971196DC
:100370008D919D910D90BC91A02D481759076A074A
:100380007B0781F0F80185819681A781B085019670
:10039000A11DB11D85839683A783B087FFEFEF1A58
:1003A000FF0A15C0D8011996ED91FC911A978C910E
:1003B000082E000C990B0995F8018083158216828E
:1003C00017821086DFCF10920D01F12CE12CE11481
:1003D000F10409F4BACF80910D018823E1F3F3CF42
:1003E000A1E21A2EAA1BBB1BFD010DC0AA1FBB1F39
:1003F000EE1FFF1FA217B307E407F50720F0A21BAB
:10040000B30BE40BF50B661F771F881F991F1A9417
:1004100069F760957095809590959B01AC01BD0141
:08042000CF010895F894FFCF0D
:080428001020408001000000DB
:00000001FF
