:100000000C9446000C9465000C9465000C946500FB
:100010000C9465000C9465000C9465000C946500CC
:100020000C9465000C9465000C9465000C946500BC
:100030000C9465000C9401020C9465000C9465000E
:100040000C9465000C9465000C9465000C9465009C
:100050000C9465000C9465000C9465000C9465008C
:100060000C9465000C9465000C9465000C9465007C
:100070000C9465000C9465000C9465000C9465006C
:100080000C9465000C9465000C94650011241FBE4F
:10009000CFEFD0E4DEBFCDBF11E0A0E0B1E0E8E9F2
:1000A000FAE000E00BBF02C007900D92A231B10749
:1000B000D9F721E0A2E1B1E001C01D92A337B20758
:1000C000E1F70E94F5030C944A050C940000282FD8
:1000D000392F2130310511F122303105B1F02115D0
:1000E000310549F02130310551F122303105F9F067
:1000F000232B89F00895809118018130F1F08091CF
:100100001701813091F0822F06C080911701813054
:1001100071F080E090E01092130108958091180131
:10012000813069F080E090E0F6CF22E030E085E0B9
:1001300080931301822F932F089521E030E08AE00D
:1001400080931301822F932F0895282F392F213068
:100150003105D9F02230310509F12115310551F071
:100160002130310529F12230310509F47AC0232BE1
:1001700091F00895809116018130C1F080911501B0
:10018000813009F46CC0822F06C080911601813045
:1001900079F080E090E010921201089580911501AD
:1001A000813009F45EC080E090E0F5CF21E030E0DE
:1001B00080911401811109C090E9909312018F5F21
:1001C00080931401822F932F0895813091F0823013
:1001D000C9F0833001F1843039F1853071F1863016
:1001E000A9F180E18093120110921401822F932FC4
:1001F000089590E8909312018F5F80931401822FED
:10020000932F089590EC909312018F5F80931401C7
:10021000822F932F089590E4909312018F5F809323
:100220001401822F932F089590E6909312018F5F0F
:1002300080931401822F932F089590E290931201DE
:100240008F5F80931401822F932F089590E39093F2
:1002500012018F5F80931401822F932F089522E063
:1002600030E080911401811109C090E19093120156
:100270008F5F80931401822F932F0895813091F026
:100280008230C9F0833001F1843039F1853071F169
:100290008630A9F180E98093120110921401822F17
:1002A000932F089590E3909312018F5F8093140130
:1002B000822F932F089590E2909312018F5F809385
:1002C0001401822F932F089590E6909312018F5F6F
:1002D00080931401822F932F089590E4909312013C
:1002E0008F5F80931401822F932F089590EC909349
:1002F00012018F5F80931401822F932F089590E84D
:10030000909312018F5F80931401822F932F089591
:10031000009731F42091130130911201232B25B95C
:1003200008950F931F93CF93DF9300D000D000D098
:10033000CDB7DEB729833A834B835C8309811A8169
:100340002B812E833C813D8329813A814B815C81C5
:100350000E94280569837A838B839C83602F712F89
:100360008E819D8129813A814B815C81232B242BB5
:10037000252B21F726960FB6F894DEBF0FBECDBF12
:10038000DF91CF911F910F910895609300017093B9
:100390000101809302019093030160931A0170930D
:1003A0001B0180931C0190931D0108958BE08093A5
:1003B00081008DE790E0909389008093880082E02F
:1003C00080936F001092850010928400809100014C
:1003D00090910101A0910201B091030180931A0153
:1003E00090931B01A0931C01B0931D018FB78068EF
:1003F0008FBF089510928100089581E080931E01BF
:1004000008951F920F920FB60F9211240BB60F9200
:100410002F933F934F935F936F937F938F939F930C
:10042000AF93BF93EF93FF9380911A0190911B01BB
:10043000A0911C01B0911D010197A109B109809300
:100440001A0190931B01A0931C01B0931D01892BED
:100450008A2B8B2B99F0FF91EF91BF91AF919F91D8
:100460008F917F916F915F914F913F912F910F905D
:100470000BBE0F900FBE0F901F9018950E94FD01AC
:100480008091000190910101A0910201B0910301BE
:1004900080931A0190931B01A0931C01B0931D013E
:1004A000DACF813081F0E1ECF0E0808188618083F7
:1004B000E2ECF0E080818660808383E38093C40077
:1004C0001092C5000895E9ECF0E080818861808396
:1004D000EAECF0E080818660808383E38093CC0047
:1004E0001092CD000895813021F08091C00080727B
:1004F00008958091C80080720895813021F0809124
:10050000C000807408958091C8008074089581307F
:1005100021F08091C000807808958091C800807893
:100520000895813041F08091C00088231CF48091AF
:10053000C600F9CF08958091C80088231CF48091EB
:10054000CE00F9CF0895613039F09091C00095FF49
:10055000FCCF8093C60008959091C80095FFFCCF12
:100560008093CE000895813039F08091C0008823B7
:10057000E4F78091C60008958091C8008823E4F7CD
:100580008091CE000895CF93DF93C82FD92F209765
:1005900029F080E090E0DF91CF91089581E00E9402
:1005A0008702811103C08C2F9D2FF5CF81E00E941F
:1005B000B3028093190181E00E94910281E090E0F2
:1005C000EACF80E480937C0087E880937A000895E6
:1005D0008770ECE7F0E09081987F892B8083EAE7D1
:1005E000F0E080818064808380917A0086FDFCCF7A
:1005F00080917800909179000895CF93DF93C82F70
:10060000D92F80E00E94E802282F392F209761F02F
:10061000C130D10579F426343105A0F018B88C2FFB
:100620009D2FDF91CF9108952634310568F0C1E008
:10063000D0E0F4CF209741F0C130D10579F38C2F71
:100640009D2FEFCFD0E0C0E083E088B98C2F9D2FA5
:10065000E8CFCF93DF93C82FD92F82E00E94E80222
:10066000282F392FC130D105F1F0C230D10529F141
:10067000209759F0C130D105C1F1C230D105D1F177
:10068000209751F08C2F9D2F27C02C3B82E03807FC
:10069000F0F42D32314060F11092180110921701E0
:1006A0008C2F9D2F19C02C3B82E03807C0F42D32CF
:1006B000314030F1D0E0C0E0EFCF2C3B82E0380792
:1006C00088F42D323140B0F0D0E0C0E0E5CF81E0D9
:1006D00090E021E020931801DF91CF9108958C2FB5
:1006E0009D2FF7CF81E090E0F4CF8C2F9D2FF1CF9D
:1006F000C2E0D0E081E0809317018C2F9D2FECCFDA
:10070000C2E0D0E0F7CFCF93DF93C82FD92F81E09D
:100710000E94E802282F392FC130D105F1F0C230F4
:10072000D10529F1209759F0C130D105C1F1C2306E
:10073000D105D1F1209751F08C2F9D2F27C02C3B54
:1007400082E03807F0F42D32314060F1109216014A
:10075000109215018C2F9D2F19C02C3B82E0380779
:10076000C0F42D32314030F1D0E0C0E0EFCF2C3B6F
:1007700082E0380788F42D323140B0F0D0E0C0E09C
:10078000E5CF81E090E021E020931601DF91CF9149
:1007900008958C2F9D2FF7CF81E090E0F4CF8C2F20
:1007A0009D2FF1CFC2E0D0E081E0809315018C2F26
:1007B0009D2FECCFC2E0D0E0F7CF0097A9F42091B5
:1007C000190121FB332730F930931801322F317092
:1007D0003093170123FB332730F93093160122FBA6
:1007E000222720F9209315010895CDB7DEB72E9763
:1007F0000FB6F894DEBF0FBECDBF80EF81B98FE09A
:1008000082B98FEF84B915B887B918B80E94E10290
:1008100081E00E94510281E00E94910221E030E0DB
:1008200040E050E063E070E080E090E00E949101E1
:1008300021E030E040E050E00E94910121E030E012
:1008400040E050E00E94910121E030E040E050E0C3
:100850000E94910124EF31E040E050E00E949101BC
:1008600021E030E040E050E00E94910121E030E0E2
:1008700040E050E00E949101662E772E082F192F3C
:1008800063E070E080E090E0262D372D402F512F5F
:100890000E94280549015A0161E070E080E090E083
:1008A000262D372D402F512F0E94280569017A01EE
:1008B00064EF71E080E090E0262D372D402F512F1E
:1008C0000E9428058EE0E4E0F1E0DE01119601903F
:1008D0000D928A95E1F7E7E6F1E01082818292823B
:1008E000A382B48285829682A782B08683EC92E04E
:1008F00092878187EBE5F1E01082C182D282E382A8
:10090000F482C582D682E782F08687E690E09287FD
:100910008187EFE4F1E01082C182D282E382F48227
:10092000C582D682E782F08685EA90E09287818749
:10093000E3E4F1E01082C182D282E382F482C582D4
:10094000D682E782F08688E891E092878187E7E3A4
:10095000F1E081E0808321833283438354832583C4
:100960003683478350878DEF92E092878187EBE251
:10097000F1E01082C182D282E382F482C582D68203
:10098000E782F08689E293E092878187EFE1F1E0E8
:100990001082C182D282E382F482C582D682E7824B
:1009A000F08683E893E092878187662D772D802FEC
:1009B000912F0E94C5010E94D60147C0F801858190
:1009C0009681A781B0850196A11DB11D858396836F
:1009D000A783B087FFEFEF1AFF0A87E0E816F1045C
:1009E00070F5F701EE0FFF1F81E090E08C0F9D1F67
:1009F000E80FF91F00811181D80115964D915D9185
:100A00006D917C91189711968D919D910D90BC914F
:100A1000A02D481759076A077B0781F6D801199658
:100A2000ED91FC911A978C91082E000C990B099569
:100A3000F80180831582168217821086BFCF8091BD
:100A40001E018823E1F310921E01F12CE12CC5CF89
:100A5000A1E21A2EAA1BBB1BFD010DC0AA1FBB1FC2
:100A6000EE1FFF1FA217B307E407F50720F0A21B34
:100A7000B30BE40BF50B661F771F881F991F1A94A1
:100A800069F760957095809590959B01AC01BD01CB
:080A9000CF010895F894FFCF97
:100A98000100000067015B014F01430137012B0191
:020AA8001F012C
:00000001FF
