:100000000C9446000C9465000C9465000C946500FB
:100010000C9465000C9465000C9465000C946500CC
:100020000C9465000C9465000C9465000C946500BC
:100030000C9465000C94D7000C9465000C9465003A
:100040000C9465000C9465000C9465000C9465009C
:100050000C9465000C9465000C9465000C9465008C
:100060000C9465000C9465000C9465000C9465007C
:100070000C9465000C9465000C9465000C9465006C
:100080000C9465000C9465000C94650011241FBE4F
:10009000CFEFD0E4DEBFCDBF11E0A0E0B1E0E4ECF3
:1000A000F8E000E00BBF02C007900D92A033B1074B
:1000B000D9F724E0A0E3B1E001C01D92A73CB2074C
:1000C000E1F70E949C030C9460040C9400000F93D1
:1000D0001F93CF93DF9300D000D000D0CDB7DEB711
:1000E00029833A834B835C8309811A812B812E8378
:1000F0003C813D8329813A814B815C810E943E0491
:1001000069837A838B839C83602F712F8E819D817D
:1001100029813A814B815C81232B242B252B21F7CC
:1001200026960FB6F894DEBF0FBECDBFDF91CF91FC
:100130001F910F91089560930001709301018093C6
:100140000201909303016093310170933201809317
:1001500033019093340108958BE0809381008DE703
:1001600090E0909389008093880082E080936F00F4
:1001700010928500109284008091000190910101FD
:10018000A0910201B091030180933101909332015B
:10019000A0933301B09334018FB780688FBF089567
:1001A00010928100089581E08093350108951F9297
:1001B0000F920FB60F9211240BB60F922F933F930D
:1001C0004F935F936F937F938F939F93AF93BF935F
:1001D000EF93FF938091310190913201A09133010F
:1001E000B09134010197A109B10980933101909335
:1001F0003201A0933301B0933401892B8A2B8B2BCE
:1002000099F0FF91EF91BF91AF919F918F917F9165
:100210006F915F914F913F912F910F900BBE0F9077
:100220000FBE0F901F9018950E94D300809100017F
:1002300090910101A0910201B091030180933101DD
:1002400090933201A0933301B0933401DACF482F59
:10025000592F30E020E002C02F5F3F4F24173507B1
:100260004CF490E080E0873063E09607ACF7000044
:100270000196F9CF089598B19D7F98B98BB988B14F
:10028000816088B9000088B18E7F88B982E090E0F3
:100290000E942701089581E00E943B01089584E6B1
:1002A00090E00E94270188E30E943B0186E00E94C3
:1002B0003B018FE00E943B0181E00E943B018AE00C
:1002C00090E00E942701089598B1926098B98BB987
:1002D00088B1816088B9000088B18E7F88B981E0DB
:1002E00090E00E9427010895813120F481580E94F6
:1002F0003B01089581550E943B0108951F93CF93C0
:10030000DF93C62FD72F9881992349F011E0180F5A
:100310000E94740189910E946401812FF4CFDF91C2
:10032000CF911F91089584B1806B84B98CB581659C
:100330008CBD08958EBD0DB407FEFDCF8EB508951A
:10034000CF93C62F95B19F7E95B990E0880F991FE6
:100350008E770E949A018C2F0E949A0185B180614C
:1003600085B9CF91089595B19F7E95B990E0880F9A
:10037000991F8E7780680E949A0180E00E949A01FE
:1003800095B1906195B908956FE081E00E94A00158
:1003900008950E94C4016DE88AE20E94A0016EE304
:1003A0008BE20E94A0016EE18CE20E94A00160E05D
:1003B0008DE20E94A00160E485E10E94A0016DE34E
:1003C00081E10E94A00184E10E94B301982F937003
:1003D00009F00895682F636084E10E94A001F9CFBD
:1003E0003F924F925F926F927F928F929F92AF92C5
:1003F000BF92CF92DF92EF92FF920F931F93CF9312
:10040000DF93382EA62EB72EC42FE22EF32EC02E49
:10041000D12E4CE08417E9F05EE085131DC0D0E1D9
:1004200012E184E00E94B301682F6F7784E00E949C
:10043000A0018AE00E94B301682F60688AE00E94F0
:10044000A00160E081E00E94A001412C512C32010A
:1004500012C0D0E317E7E5CFD0E010E0E2CFF5011E
:10046000E40DF51D608189E00E94A0018FEF481A1C
:10047000580A680A780A8C2F90E0B0E0A0E048168D
:1004800059066A067B0658F3632D81E00E94A0019D
:10049000ECE03E16B9F10F2EF0ED8F2EF7E09F2E17
:1004A000A12CB12CF02D84E00E94B301C82FF1E003
:1004B0008F1A9108A108B10829F080FD03C08D2F83
:1004C0008C2389F38DE00E94B301682F6F778DE054
:1004D0000E94A00189288A288B28E9F4C3E08C2F88
:1004E000DF91CF911F910F91FF90EF90DF90CF9010
:1004F000BF90AF909F908F907F906F905F904F9044
:100500003F9008958DE00E94B301682F60688DE0F0
:100510000E94A001C0CF86E00E94B3018B7109F058
:100520005CC0C123C0FD29C0C1E04CE03412D7CF6C
:100530008AE00E94B301D82F8CE00E94B30187703B
:10054000F1F0ED2FE150FF0B9F01220F331F220F1F
:10055000331F220F331F820F932F911D092E000C82
:10056000AA0BBB0BF60180839183A283B383DD23A7
:10057000C1F0D131B8F0D0E115C0C2E0D6CF8D2F97
:1005800090E0880F991F880F991F880F991F092ED7
:10059000000CAA0BBB0BF60180839183A283B3836B
:1005A000E6CFD1E0812C912C54010DC08701080DBC
:1005B000191D89E00E94B301F8018083FFEF8F1AB3
:1005C0009F0AAF0ABF0A4D2F50E070E060E084162A
:1005D0009506A606B70650F382CFC3E080CFEF9210
:1005E000FF920F931F93CF93DF9300D000D0CDB72E
:1005F000DEB7182FE62EF72E67E08DE00E94A001EF
:10060000F70110838E010F5F1F4F970141E0B70183
:100610008CE00E94F001813061F083E00F900F9038
:100620000F900F90DF91CF911F910F91FF90EF905E
:10063000089549815A816B817C8140315105610562
:10064000710561F383E0EACFCF93DF93C82FD92FF1
:1006500063E471E082E50E94EF02809342012097FB
:1006600059F0C130D105C9F0209741F0C130D10512
:10067000D9F08C2F9D2F0EC08130A1F00E944B012C
:1006800064E071E081E00E947E0181E10E947401DA
:100690008C2F9D2FDF91CF910895813029F0D0E0EC
:1006A000C0E0ECCFC1E0D0E00E944B0165E171E019
:1006B00081E00E947E018C2F9D2FECCFEF92FF9264
:1006C0000F931F93CF93DF9300D000D0CDB7DEB749
:1006D000E82EF92E60E08DE00E94A00183E9F70189
:1006E000808380E281838E010F5F1F4F970142E07C
:1006F000B7018CE00E94F0018130D9F00F900F908B
:100700000F900F90DF91CF911F910F91FF90EF907D
:100710000895F701E90FF11D308123279F5F943081
:10072000C0F3E90EF11CF7019081921739F383E0D1
:10073000E5CF20E090E0F3CF00D0CDB7DEB78FEF6C
:100740008AB91BB887B918B881B912B80E94930149
:100750000E94C9010E944F0187E30E94B301809368
:1007600042018239B9F180598230B8F582E082B90C
:1007700082E00E94B30180934201682F606282E0B0
:100780000E94A00183E00E94B30180934201682F80
:10079000606883E00E94A001E6E3F1E0FA83E98368
:1007A000108281E090E0A0E0B0E081839283A38397
:1007B000B48385839683A783B08784E293E092878E
:1007C000818764EF71E080E090E00E949B000E94CE
:1007D000AC0049C081E082B9CBCF60E271E081E03A
:1007E0000E947E01C5CFF701EE0FFF1F81E090E070
:1007F0008C0F9D1FE80FF91F00811181D8011596FC
:100800004D915D916D917C91189711968D919D916F
:100810000D90BC91A02D481759076A077B0781F0FE
:10082000F80185819681A781B0850196A11DB11D32
:1008300085839683A783B087FFEFEF1AFF0A15C061
:10084000D8011996ED91FC911A978C91082E000C05
:10085000990B0995F80180831582168217821086FC
:10086000DFCF10923501F12CE12CE114F10409F4F1
:10087000BACF809135018823E1F3F3CFA1E21A2E9C
:10088000AA1BBB1BFD010DC0AA1FBB1FEE1FFF1F34
:10089000A217B307E407F50720F0A21BB30BE40B84
:1008A000F50B661F771F881F991F1A9469F76095CB
:1008B0007095809590959B01AC01BD01CF01089585
:0408C000F894FFCFDA
:1008C4000100000057616974696E6720666F7220C9
:1008D4005246494400466F756E6420636172640039
:1008E4004E6F2072656164657220666F756E640078
:00000001FF
