:100000000C9446000C9465000C9465000C946500FB
:100010000C9465000C9465000C9465000C946500CC
:100020000C9465000C9465000C9465000C946500BC
:100030000C9465000C94DA000C9465000C94650037
:100040000C9465000C9465000C9465000C9465009C
:100050000C9465000C9465000C9465000C9465008C
:100060000C9465000C9465000C9465000C9465007C
:100070000C9465000C9465000C9465000C9465006C
:100080000C9465000C9465000C94650011241FBE4F
:10009000CFEFD0E4DEBFCDBF11E0A0E0B1E0EEEFE6
:1000A000F4E000E00BBF02C007900D92A430B1074E
:1000B000D9F721E0A4E0B1E001C01D92A232B2075D
:1000C000E1F70E94BC010C947D020C94000090E0CA
:1000D00080E008950F931F93CF93DF9300D000D05B
:1000E00000D0CDB7DEB729833A834B835C83098187
:1000F0001A812B812E833C813D8329813A814B815A
:100100005C810E945B0269837A838B839C83602F6E
:10011000712F8E819D8129813A814B815C81232BB6
:10012000242B252B21F726960FB6F894DEBF0FBEA1
:10013000CDBFDF91CF911F910F9108956093000182
:100140007093010180930201909303016093050174
:1001500070930601809307019093080108958BE046
:10016000809381008DE790E09093890080938800D0
:1001700082E080936F00109285001092840080913D
:10018000000190910101A0910201B09103018093BF
:10019000050190930601A0930701B09308018FB762
:1001A00080688FBF089510928100089581E0809348
:1001B000090108951F920F920FB60F9211240BB6EA
:1001C0000F922F933F934F935F936F937F938F93F0
:1001D0009F93AF93BF93EF93FF938091050190910D
:1001E0000601A0910701B09108010197A109B10989
:1001F0008093050190930601A0930701B093080135
:10020000892B8A2B8B2B99F0FF91EF91BF91AF91A6
:100210009F918F917F916F915F914F913F912F911E
:100220000F900BBE0F900FBE0F901F9018950E945D
:10023000D6008091000190910101A0910201B0913E
:1002400003018093050190930601A0930701B093E9
:100250000801DACF813081F0E1ECF0E08081886143
:100260008083E2ECF0E080818660808383E380938A
:10027000C4001092C5000895E9ECF0E08081886127
:100280008083EAECF0E080818660808383E3809362
:10029000CC001092CD000895813021F08091C000F3
:1002A000807208958091C80080720895813021F095
:1002B0008091C000807408958091C8008074089572
:1002C000813021F08091C000807808958091C8002D
:1002D00080780895813041F08091C00088231CF41B
:1002E0008091C600F9CF08958091C80088231CF43E
:1002F0008091CE00F9CF0895613039F09091C0001F
:1003000095FFFCCF8093C60008959091C80095FF9B
:10031000FCCF8093CE000895813039F08091C000E9
:100320008823E4F78091C60008958091C80088234F
:10033000E4F78091CE000895CF93DF93C82FD92F93
:10034000209729F080E090E0DF91CF91089580E040
:100350000E946001811104C012B88C2F9D2FF4CF30
:1003600080E00E948C0185B980E00E946A0184E0EF
:1003700082B981E090E0E8CF00D000D0CDB7DEB701
:100380001FEF11B912B814B915B880E00E942A0104
:1003900024EF31E040E050E064EF71E080E090E075
:1003A0000E946A00E62EF72E082FD92E64EF71E026
:1003B00080E090E02E2D3F2D402F5D2D0E945B02AE
:1003C000A6E1B1E0BA83A983EAE0F1E0FC83EB8324
:1003D0001C9311962D933D934D935C931497159612
:1003E0002D933D934D935C93189787E690E01A9672
:1003F0009C938E9319971083218332834383548374
:1004000025833683478350878CE991E092878187E3
:100410006E2D7F2D802F9D2D0E949E000E94AF008B
:1004200047C0F80185819681A781B0850196A11DFD
:10043000B11D85839683A783B087FFEFEF1AFF0A6C
:1004400082E0E816F10470F5F701EE0FFF1F81E07E
:1004500090E08C0F9D1FE80FF91F00811181D801DA
:1004600015964D915D916D917C91189711968D9196
:100470009D910D90BC91A02D481759076A077B07E5
:1004800081F6D8011996ED91FC911A978C91082E5E
:10049000000C990B0995F80180831582168217824A
:1004A0001086BFCF809109018823E1F310920901E2
:1004B000F12CE12CC5CFA1E21A2EAA1BBB1BFD011A
:1004C0000DC0AA1FBB1FEE1FFF1FA217B307E40733
:1004D000F50720F0A21BB30BE40BF50B661F771F8B
:1004E000881F991F1A9469F760957095809590956B
:0E04F0009B01AC01BD01CF010895F894FFCF30
:0404FE0001000000F9
:00000001FF
